:100000000C9436000C9453000C9453000C94530041
:100010000C9453000C9453000C9453000C94530014
:100020000C9453000C9453000C9453000C94530004
:100030000C9453000C9453000C9453000C945300F4
:100040000C9453000C9453000C9453000C945300E4
:100050000C9453000C9453000C9453000C945300D4
:100060000C9453000C9453000C94530011241FBEA5
:10007000CFEFD4E0DEBFCDBF11E0A0E0B1E0EAE217
:10008000FDE002C005900D92AC30B107D9F721E038
:10009000ACE0B1E001C01D92AD32B207E1F70E94C1
:1000A00023020C9493060C94000098E07198882326
:1000B00014F4709A01C07098719A880F9150B1F73A
:1000C000089580E197E200000197E9F708955E98AE
:1000D0000E9455005F9A0E9461005F98089581E038
:1000E0000E94670088E30E9467008CE00E9467001E
:1000F00086E00E94670008955E9A0E9455005F9A0C
:100100000E9461005F9808950E947C000895BF924C
:10011000CF92DF92EF92FF920F931F93CF93DF93D3
:10012000B82EAB016B01D694C794D694C794D694DD
:10013000C794D694C7949601A7E4B3E00E949A03AB
:10014000FC01F695E795F695E795F695E79520E19C
:1001500037E2E29FC001E39F900DF29F900D1124C2
:10016000FA01E81BF90B7F01F694E794F694E79403
:10017000F694E7949701A5ECB0E20E949A03AC01D3
:10018000529542954F7045275F70452728EE33E022
:10019000429FC001439F900D529F900D1124AF01CB
:1001A000481B590BEA01D695C795D695C7959E0170
:1001B000ABE7B4E10E949A038C011695079524E6FB
:1001C000209FC001219F900D11248A01081B190B4B
:1001D0008B2D0E9467009601A7E4B3E00E949A036A
:1001E000969587959695879596958795805D0E94BB
:1001F00084009701A5ECB0E20E949A039295829543
:100200008F7089279F708927805D0E9484009E01DE
:10021000ABE7B4E10E949A0396958795805D0E94B2
:1002200084009801ADECBCEC0E949A03EC01D695D9
:10023000C795D695C795D695C7958C2F805D0E949A
:100240008400CE01880F991FCC0FDD1FCC0FDD1F5E
:10025000CC0FDD1FC80FD91FC8018C1B9D0B805D03
:100260000E948400DF91CF911F910F91FF90EF903A
:10027000DF90CF90BF900895FC019C0132952295AC
:100280002F7023273F702327A7E4B3E00E949A032F
:10029000AC0156954795569547955695479520E15B
:1002A00037E2429FC001439F900D529F900D112451
:1002B000AF01481B590B9A0136952795369527951E
:1002C00036952795A5ECB0E20E949A03FC01F295C1
:1002D000E295EF70EF27FF70EF2728EE33E0E29F03
:1002E000C001E39F900DF29F900D1124FA01E81BCD
:1002F000F90B9F013695279536952795ABE7B4E125
:100300000E949A03AC015695479524E6249FC001AC
:10031000259F900D1124AF01481B590B9A01ADEC9C
:10032000BCEC0E949A03969587959695879596952D
:10033000879520E3280F20932C019C01220F331F67
:10034000880F991F880F991F880F991F820F931F7D
:10035000481B590B405D409326010895CF93DF93CE
:10036000AC019C01329522952F7023273F702327E3
:10037000A7E4B3E00E949A03FC01F695E795F69591
:10038000E795F695E79520E137E2E29FC001E39F0C
:10039000900DF29F900D1124FA01E81BF90BEF016B
:1003A000D695C795D695C795D695C7959E01A5ECC8
:1003B000B0E20E949A03AC01529542954F704527D6
:1003C0005F70452728EE33E0429FC001439F900DA8
:1003D000529F900D1124AF01481B590B9E010E94A2
:1003E0009A03929582958F7089279F708927805DE7
:1003F00080932B019A013695279536952795ABE783
:10040000B4E10E949A039695879520E3280F2093E4
:10041000290164E6689F9001699F300D1124CA018B
:10042000821B930B9C01ADECBCEC0E949A03969549
:1004300087959695879596958795805D80932A01F7
:10044000DF91CF9108958FEF8DB984B987B98AB9BB
:100450001EB815B818B81BB80E946F008CE091E068
:100460000E943603C12CDD24D394EE24EA94F12CAF
:1004700001E712E08CE091E00E94360380912201B6
:10048000909123018B3F910508F453C020912701DF
:1004900030912801A601421B530B9A01EA01CF704B
:1004A000DD27A701481B590BCA0187708295807F01
:1004B000329522952F7023273F702327822B082EF9
:1004C000000C990B0E943C01C09FC001C19F900D80
:1004D000D09F900D11240E94AE0180EC0E94670015
:1004E0008DE20E94840080912C010E948400809102
:1004F00026010E9484008EE20E94840080912B01DC
:100500000E948400809129010E94840080912A0128
:100510000E948400609127017091280189E80E945F
:100520008700609122017091230189EC0E9487006D
:10053000A1CF80912001909121010E943C018091E6
:100540002401909125010E94AE0180EC0E94670079
:100550008BE20E94840080912C010E948400809193
:1005600026010E9484008EE20E94840080912B016B
:100570000E948400809129010E94840080912A01B8
:100580000E948400609127017091280189E80E94EF
:100590008700609122017091230189EC0E948700FD
:1005A00069CF9C0121503109892B21F00000215095
:1005B0003109E0F70895CF93509A589880E095E07C
:1005C0000E94D102509880EA90E00E94D102C9B105
:1005D00080E694E00E94D1028C2F8170CF91089523
:1005E000CF93509A589882E090E00E94D1025098A0
:1005F00085E290E00E94D102C9B188E790E00E94B4
:10060000D1028C2F8170CF910895CF93DF93D8E0E2
:10061000C0E00E94F00220E8829FC0011124C6952C
:10062000C82BD150B1F78C2FDF91CF910895CF9384
:10063000C82F509A589882E090E00E94D102C111D0
:10064000509880EA90E00E94D1025098CF9108958E
:10065000CF93DF93D82FC8E08D2F81700E941703AE
:10066000D695C150C9F7DF91CF9108950F931F938D
:10067000CF93DF93182F092F0E94DB028CEC0E948E
:10068000280384E40E9428030E94F0028823E1F3F7
:100690000E94DB028CEC0E9428038EEB0E94280350
:1006A0000E940503D82F0E940503C82F0E94DB0279
:1006B0008D2F90E090932801809327018C2F90E05C
:1006C00090932301809322012D2F22952F70C770C4
:1006D00030E1C39FC0011124822BDF7041E752E05B
:1006E000D49F9001D59F300D1124482F082E000C67
:1006F000550B509321014093200130932501209305
:1007000024013F932F935F938F9380E091E09F9319
:100710008F930F931F930E94A9038DB79EB70896DE
:100720000FB6F8949EBF0FBE8DBFDF91CF911F9182
:100730000F910895A29FB001B39FC001A39F700DB8
:10074000811D1124911DB29F700D811D1124911DD9
:100750000895AEE0B0E0EFEAF3E00C946A060D898C
:100760001E8986E08C831A8309838FEF9FE79E831F
:100770008D83AE01475E5F4F6F89788DCE01019604
:100780000E94CB03EF81F885E00FF11F10822E96B7
:10079000E4E00C948606ABE0B0E0E1EDF3E00C940D
:1007A0005C066C017B018A01FC0117821682838141
:1007B00081FFCCC1CE0101963C01F6019381F70186
:1007C00093FD859193FF81917F01882309F4BAC13C
:1007D000853239F493FD859193FF81917F018532B4
:1007E00029F4B60190E00E94C205E7CF912C212C9C
:1007F000312CFFE1F315D8F08B3279F038F48032E8
:1008000079F08332A1F4232D20611DC08D3261F077
:10081000803369F4232D216016C0832D8260382E29
:10082000E32DE4603E2E2AC0F32DF8601DC037FC96
:100830002DC020ED280F2A3040F08E32B9F436FC5E
:1008400081C1232D2064322E19C036FE06C08AE0F5
:10085000989E200D1124922E11C0EAE02E9E200DAC
:100860001124222EF32DF0623F2E08C08C3621F485
:10087000832D8068382E02C0883641F4F70193FD3D
:10088000859193FF81917F018111B3CF982F9F7D37
:100890009554933028F40C5F1F4F9FE399830DC04C
:1008A000833631F0833771F0833509F059C021C0A8
:1008B000F801808189830E5F1F4F88248394912CD7
:1008C000530113C02801F2E04F0E511CF801A08023
:1008D000B18036FE03C0692D70E002C06FEF7FEF7C
:1008E000C5010E94B7054C018201F32DFF773F2E11
:1008F00016C0280122E0420E511CF801A080B180F0
:1009000036FE03C0692D70E002C06FEF7FEFC501B6
:100910000E94AC054C01F32DF0683F2E820133FCA0
:100920001BC0822D90E088169906B0F4B60180E2D3
:1009300090E00E94C2052A94F4CFF50137FC85911E
:1009400037FE81915F01B60190E00E94C20521103F
:100950002A9421E0821A91088114910471F7E8C069
:10096000843611F0893641F5F80137FE07C0608101
:100970007181828193810C5F1F4F08C060817181FA
:10098000072E000C880B990B0E5F1F4FF32DFF767F
:100990003F2E97FF09C090958095709561957F4F88
:1009A0008F4F9F4FF0683F2E2AE030E0A3010E9456
:1009B000FE05882E861845C0853731F4232D2F7EFD
:1009C000B22E2AE030E025C0932D997FB92E8F36C4
:1009D000C1F018F4883579F0B5C0803719F0883740
:1009E00021F0B0C0E92FE061BE2EB4FE0DC0FB2D9A
:1009F000F460BF2E09C034FE0AC0292F2660B22E33
:100A000006C028E030E005C020E130E002C020E16F
:100A100032E0F801B7FE07C0608171818281938165
:100A20000C5F1F4F06C06081718180E090E00E5F17
:100A30001F4FA3010E94FE05882E8618FB2DFF770D
:100A40003F2E36FE0DC0232D2E7FA22E891458F482
:100A500034FE0BC032FC09C0832D8E7EA82E05C04B
:100A6000B82CA32C03C0B82C01C0B92CA4FE0FC015
:100A7000FE01E80DF11D8081803321F49A2D997ECD
:100A8000A92E09C0A2FE06C0B394B39404C08A2D57
:100A9000867809F0B394A3FC11C0A0FE06C0B2147E
:100AA00088F4280C922C9B180EC0B21460F4B60186
:100AB00080E290E00E94C205B394F7CFB21418F41C
:100AC0002B1802C0982C212CA4FE10C0B60180E384
:100AD00090E00E94C205A2FE17C0A1FC03C088E7F7
:100AE00090E002C088E590E0B6010CC08A2D8678BF
:100AF00059F0A1FE02C08BE201C080E2A7FC8DE2AA
:100B0000B60190E00E94C205891438F4B60180E372
:100B100090E00E94C2059A94F7CF8A94F301E80D01
:100B2000F11D8081B60190E00E94C2058110F5CFD1
:100B3000222009F442CEB60180E290E00E94C20574
:100B40002A94F6CFF6018681978102C08FEF9FEF3E
:100B50002B96E2E10C947806FC0105906150704000
:100B60000110D8F7809590958E0F9F1F0895FC0176
:100B70006150704001900110D8F7809590958E0FCC
:100B80009F1F08950F931F93CF93DF93FB01238142
:100B900021FD03C08FEF9FEF2CC022FF16C04681BE
:100BA0005781248135814217530744F4A081B181D4
:100BB0009D012F5F3F4F318320838C9326813781A6
:100BC0002F5F3F4F3783268314C08B01EC01FB015D
:100BD0000084F185E02D0995892BE1F6D801169660
:100BE0008D919C911797019617969C938E931697CB
:100BF000CE01DF91CF911F910F910895FA01AA279D
:100C0000283051F1203181F1E8946F936E7F6E5F4F
:100C10007F4F8F4F9F4FAF4FB1E03ED0B4E03CD0FD
:100C2000670F781F891F9A1FA11D680F791F8A1FE0
:100C3000911DA11D6A0F711D811D911DA11D20D047
:100C400009F468943F912AE0269F11243019305D01
:100C50003193DEF6CF010895462F4770405D4193F2
:100C6000B3E00FD0C9F7F6CF462F4F70405D4A333F
:100C700018F0495D31FD4052419302D0A9F7EACF07
:100C8000B4E0A6959795879577956795BA95C9F736
:100C900000976105710508959B01AC010A2E069429
:100CA0005795479537952795BA95C9F7620F731FE2
:100CB000841F951FA01D08952F923F924F925F921F
:100CC0006F927F928F929F92AF92BF92CF92DF925C
:100CD000EF92FF920F931F93CF93DF93CDB7DEB7C1
:100CE000CA1BDB0B0FB6F894DEBF0FBECDBF099455
:100CF0002A88398848885F846E847D848C849B84AC
:100D0000AA84B984C884DF80EE80FD800C811B81B9
:100D1000AA81B981CE0FD11D0FB6F894DEBF0FBEE8
:0A0D2000CDBFED010895F894FFCF58
:0C0D2A00252B642E25303475204300007A
:00000001FF
